:020000040800F2
:100000006804002001010008FF0B00081D0B000818
:10001000FD0B00086D010008330D00080000000012
:10002000000000000000000000000000030C0008B9
:100030006F01000800000000010C0008050C00081A
:100040001B0100081B0100081B0100081B01000820
:100050001B0100081B0100081B0100081B01000810
:100060001B0100081B0100081B0100081B01000800
:100070001B0100081B0100081B0100081B010008F0
:100080001B0100081B0100081B0100081B010008E0
:100090001B0100081B0100081B0100081B010008D0
:1000A0001B0100081B0100081B0100081B010008C0
:1000B0001B0100081B0100081B0100081B010008B0
:1000C0001B0100081B0100081B0100081B010008A0
:1000D0001B0100081B0100081B0100081B01000890
:1000E0001B0100081B0100081B010008DFF80CD0F1
:1000F00000F02AF800480047750D00086804002049
:100100000648804706480047FEE7FEE7FEE7FEE7B1
:10011000FEE7FEE7FEE7FEE7FEE7FEE7590C000814
:10012000ED000008D2B201E000F8012B491EFBD21D
:1001300070470022F6E710B513460A4604461946F2
:10014000FFF7F0FF204610BD064C074D06E0E068C3
:1001500040F0010394E8070098471034AC42F6D30E
:10016000FFF7C8FF1411000834110008FEE77047BC
:1001700072B6FEE72DE9F84FDFF8B091002409F1DF
:10018000040A0AF1040B23460F270BF1040EC6E004
:100190000125A5402A40AA4276D1DFF894C14E68D5
:1001A000A6EB0C0866452BD00DDC032E34D005DC05
:1001B00036B3012E19D0022E2FD11BE0112E16D0EE
:1001C000122E2AD119E0B8F5881F19D006DCB8F52F
:1001D000803F15D0B8F5801F1FD111E0B8F5001F82
:1001E0000ED0B8F5041F18D10AE0CB6815E0CB6833
:1001F0001B1D12E0CB6808330FE0CB680C330CE01A
:100200008B682BB1012B4FF0080303D0456104E04C
:10021000042302E0056100E00023FF2A01D806461E
:1002200001E000F104064FEA840501D9A5F120059B
:10023000D6F8008007FA05FC28EA0C0803FA05F551
:1002400048EA0508C6F800804D68ED0066D5394DCE
:10025000AE6946F00106AE61AD6924F0030605F013
:1002600001050095344D06EB050CDCF80850A60797
:10027000360F07FA06F825EA0805DFF8C080404582
:1002800003D14FF0000817E048E0DFF8B4804045A4
:1002900002D14FF001080FE0DFF8A880404502D1FD
:1002A0004FF0020808E0DFF8A080404502D14FF08F
:1002B000030801E04FF0040808FA06F848EA0508C8
:1002C000CCF808804D68D9F80060ED03002D4D464C
:1002D00001DA164300E096432E604D68DAF80060BC
:1002E000AD03002D554601DA164300E096432E601B
:1002F0004D68DBF80060ED02002D5D4601DA164323
:1003000000E096432E604D68DEF80060AD02002DDF
:10031000754601DA164300E096432E60641C0A68B5
:1003200032FA04F57FF434AFBDE8F88F00040140E1
:1003300000001110001002400000014000080140C0
:10034000000C01400010014000140140806808408A
:1003500000D0012070470AB1016170470904FBE732
:100360000148806870470000100000200248816842
:10037000027811448160704710000020074810B5D2
:10038000016841F010010160032000F067F80020CF
:1003900000F006F800F024F8002010BD0020024014
:1003A00070B50D4D04464FF47A712878B1FBF0F02A
:1003B0000A490968B1FBF0F000F0C6FA48B9102C00
:1003C00007D200222146501E00F028F800206C6061
:1003D00070BD012070BD0000100000201C00002036
:1003E0000C4808B5816941F001018161816901F022
:1003F00001010091C16941F08051C161C06900F003
:10040000805000900448416821F0E06141F0806133
:10041000416008BD0010024000000140F0B40E4BE6
:100420001B680C46C3F30223C3F10705042D00D952
:100430000425191D072901D2002300E0DB1E012637
:1004400006FA05F1491E214099409E40761E16404D
:100450003143F0BC00F06EBC0CED00E0064900F04A
:10046000070208684FF6FF03184040EA0220034ADB
:1004700010430860704700000CED00E00000FA0532
:100480002DE9F0470F46050061D0434E306800F07B
:100490000700B84209D2306820F0070038433060C6
:1004A000306800F00700B84251D128683B4C810702
:1004B00012D5400703D5606840F4E060606028789A
:1004C000000703D5606840F4605060606068A96808
:1004D00020F0F000084360602878C00728D06868E2
:1004E000012810D02168022810D0890700292EDAAF
:1004F000616821F0030101436160FFF731FF80462D
:1005000041F288390DE021688903EFE78901EDE7C1
:10051000FFF726FFA0EB0801494502D90320BDE8FB
:10052000F0876068696800F00C00B0EB810FEFD1D4
:10053000306800F00700B8420BD9306820F007009F
:1005400038433060306800F00700B84201D0012025
:10055000E5E72878400705D56068E96820F4E060A1
:10056000084360602878000706D56068296920F490
:10057000605040EAC100606000F018F86168084A05
:10058000C1F30311515CC840064908600648006881
:10059000FFF706FF0020C2E70020024000100240E3
:1005A000041100081C0000201400002014A185B0D4
:1005B000D1E90023D1E90201CDE9020114A0CDE97E
:1005C0000023144A006804905168134801F00C039A
:1005D000042B10D0082B0ED1C1F38343C9031DF89F
:1005E00003000AD5516804AAC1F34041515C0A4A8C
:1005F0005043B0FBF1F005B0704708494843FAE7B3
:1006000002030405060708090A0B0C0D0E0F101053
:10061000010200000010024000127A0000093D00B3
:100620002DE9F84F040070D02078C24DC00749D0A2
:100630006868C0F38100012807D06868C0F38100B2
:10064000022809D16868C00306D52868800339D517
:1006500060680028E7D035E06068B0F5803F0BD0D7
:1006600010B1B0F5A02F11D0286820F48030286098
:10067000286820F4802002E0286840F48030286058
:10068000606890B1FFF76CFE06460AE0286840F407
:1006900080202860F0E700BFFFF762FE801B64281F
:1006A00074D828688003F7D50CE0FFF759FE06469A
:1006B00005E000BFFFF754FE801B6428F0D82868CF
:1006C0008003F7D420789C4E80074FF001094FF04B
:1006D000000839D5686810F00C0F07D06868C0F3BF
:1006E0008100022809D16868C00306D42868800701
:1006F00014D52069012808D110E02069B0B1C6F8EE
:100700000090FFF72DFE074605E00EE1FFF728FEFB
:10071000C01B0228C4D828688007F7D528686169FB
:1007200020F0F80040EAC10028600DE0C6F8008023
:10073000FFF716FE074604E0FFF712FEC01B022873
:10074000AED828688007F7D4207800072ED57B48DC
:10075000A169E1B1C0F80090FFF702FE074604E08E
:10076000FFF7FEFDC01B022810D8686A8007F7D586
:1007700073484FF4FA510068B0FBF1F0009000BFED
:100780000098411E00910028F9D10FE082E0C0F8E6
:100790000080FFF7E5FD074605E000BFFFF7E0FD3D
:1007A000C01B022876D8686A8007F7D420784007F3
:1007B00061D5E8690027C00008D4E86940F080509E
:1007C000E861E869012700F0805000905D48016809
:1007D000C90513D40168834641F480710160FFF7B5
:1007E000BFFD824606E000BFFFF7BAFDA0EB0A009E
:1007F00064284FD8DBF80000C005F5D5E068012873
:100800000AD008B1052813D0286A20F00100286218
:10081000286A20F0040002E0286A40F00100286203
:10082000E06841F2883B98B1FFF79AFD82460BE001
:10083000286A40F004002862EEE700BFFFF790FD51
:10084000A0EB0A0159455CD8286A8007F6D50CE070
:10085000FFF786FD824605E0FFF782FDA0EB0A0167
:1008600059454ED8286A8007F6D4012F03D1E8698C
:1008700020F08050E861E06990B36968C1F38101BC
:10088000022945D00228C6F8608004D0FFF768FD31
:10089000044639E035E0FFF763FD074605E000BF99
:1008A000FFF75EFDC01B02282BD828688001F7D413
:1008B000206AB0F5803F05D16868A16820F4003057
:1008C00008436860D4E908010843696821F4741199
:1008D00008436860C6F86090FFF742FD044606E0F2
:1008E00025E000BFFFF73CFD001B022809D828685F
:1008F0008001F7D51BE000BFFFF732FD001B022887
:1009000002D90320BDE8F88F28688001F4D40EE0F6
:100910000128F7D06868226A00F48031914204D13E
:10092000616A00F47010884201D00120EAE70020DB
:10093000E8E700000010024000004242800442420A
:100940001C0000200070004010B5401EB0F1807FF8
:1009500001D3012010BD4FF0E02460610F2160172A
:1009600000F0E8F90020A06107202061002010BD00
:1009700070B590F83C20012A25D0012480F83C4035
:10098000022280F83D2003685A689D6822F07006B4
:100990000A6832435A600D4B02689A4208D0B2F19D
:1009A000804F05D00A4B9A4202D00A4B9A4204D19A
:1009B000496825F08003194391603C304470002160
:1009C0000170084670BD022070BD0000002C01407F
:1009D000000400400008004010B5040003D094F863
:1009E0003D0010B107E0012010BD002084F83C005C
:1009F000204600F015F8022084F83D00211D2068F3
:100A000000F02CF901203D3460726070A070E0703D
:100A100020716071A071E07120722070002010BD03
:100A200008B500680649884208D10648816941F442
:100A300000618161806900F40060009008BD0000E1
:100A4000002C01400010024070B5044690F83C00B4
:100A5000012817D0012584F83C50022084F83D007D
:100A60002068826822F0770222F47F428260086860
:100A7000502830D00DDC20284CD005DC98B310284D
:100A80003BD147E0022070BD302843D0402834D10C
:100A900038E0602828D0702806D0B0F5805F2CD0D0
:100AA000B0F5005F29D10AE04A68083120680AC918
:100AB00000F00AF92068816841F0770109E04A688E
:100AC000083120680AC900F0FFF82068816841F405
:100AD0008041816011E0CA684968206800F006F929
:100AE0005021206807E015E0CA684968206800F0D6
:100AF0000EF96021206800F0F1F83C3465700020A8
:100B0000207070BDCA684968206800F0EFF8402185
:100B10002068F0E7226801461046ECE7FEE7000097
:100B200070B586B000241848009401940294039490
:100B3000816941F010018161816901F01001049126
:100B4000816941F0040181618069104E00F0040068
:100B500043F620450490002229463046FFF7FBFB70
:100B60007014CDE90004694609480294FFF702FBBE
:100B700001200095CDE9010402200390694630462A
:100B8000FFF7F8FA06B070BD0010024000080140FF
:100B90000010014010B586B000241748009401945D
:100BA00002940394049413490594C0E900144FF689
:100BB000FF71C0E90241046144618461FFF70CFFE9
:100BC00008B1FFF7D5FA4FF48050009069460A4803
:100BD000FFF73AFF08B1FFF7CBFA049404A90648DF
:100BE0000594FFF7C5FE002801D0FFF7C1FA06B053
:100BF00010BD0000002C014020000020FEE7FEE7B1
:100C000070477047FFF7B2BB10B590B02821684617
:100C1000FFF78FFA14210AA8FFF78BFA0220009041
:100C20000120049010200024059007946846FFF7E7
:100C3000F7FC08B172B6FEE70F20CDE90A040C9468
:100C40000D9400210AA80E94FFF71AFC002801D089
:100C500072B6FEE710B010BD70470000F0B5026834
:100C6000164B174C174D4FF08047984205D0B842AD
:100C700003D0A04201D0A84203D122F070064A68F6
:100C80003243984205D0B84203D0A04201D0A842D6
:100C900003D122F44074CA6822434C6922F08002D6
:100CA000224302608A68C2620A688262984201D165
:100CB0000969016301214161F0BD0000002C014080
:100CC000000400400008004010B5846842EA032296
:100CD00024F47F440A432243826010BD826822F0DC
:100CE00070020A4342F007018160704710B5036A41
:100CF000046A24F001040462846924F0F00444EAE4
:100D0000021423F00A020A438461026210BD10B586
:100D1000036A23F0100303628369046A23F47043B7
:100D200043EA023224F0A00343EA01118261016226
:100D300010BDFEE70907090E002801DB034A02E0A7
:100D4000034A00F00F0081547047000000E400E007
:100D500014ED00E002E008C8121F08C1002AFAD111
:100D600070477047002001E001C1121F002AFBD12B
:100D700070470000FFF702FBFFF746FFFFF7D0FECA
:100D8000FFF708FFDC4FDD4CDD4D4FF000087E140F
:100D90004FF480594FF4006A4FF4806B60680F285D
:100DA00001D1C4F8048031463846FFF7CFFA2070ED
:100DB00048B1002220212846FFF7CDFAC4F8088068
:100DC000606890B125E0012220212846FFF7C3FA90
:100DD000D4E90201884202D06068401C606031465C
:100DE0003846FFF7B3FAE060EAE7002231462846CA
:100DF000FFF7B1FA002249462846FFF7ACFA002275
:100E000051462846FFF7A7FA002259462846FFF721
:100E1000A2FA6068012813D1012231462846FFF763
:100E20009AFA002249462846FFF795FA00225146D1
:100E30002846FFF790FA002259462846FFF78BFA1A
:100E40006068022813D1002231462846FFF783FA52
:100E5000012249462846FFF77EFA002251462846DD
:100E6000FFF779FA002259462846FFF774FA6068BE
:100E7000032813D1012231462846FFF76CFA0122DC
:100E800049462846FFF767FA002251462846FFF7F1
:100E900062FA002259462846FFF75DFA6068042886
:100EA00013D1002231462846FFF755FA0022494661
:100EB0002846FFF750FA012251462846FFF74BFA21
:100EC000002259462846FFF746FA6068052813D1E4
:100ED000012231462846FFF73EFA002249462846BD
:100EE000FFF739FA012251462846FFF734FA00226B
:100EF00059462846FFF72FFA6068062813D10022CA
:100F000031462846FFF727FA012249462846FFF7CF
:100F100022FA012251462846FFF71DFA00225946BF
:100F20002846FFF718FA6068072813D101223146D6
:100F30002846FFF710FA012249462846FFF70BFA28
:100F4000012251462846FFF706FA00225946284654
:100F5000FFF701FA6068082813D1002231462846BD
:100F6000FFF7F9F9002249462846FFF7F4F9002275
:100F700051462846FFF7EFF9012259462846FFF768
:100F8000EAF96068092813D1012231462846FFF7A3
:100F9000E2F9002249462846FFF7DDF900225146D2
:100FA0002846FFF7D8F9012259462846FFF7D3F91A
:100FB00060680A2813D1002231462846FFF7CBF992
:100FC000012249462846FFF7C6F900225146284625
:100FD000FFF7C1F9012259462846FFF7BCF96068BE
:100FE0000B2813D1012231462846FFF7B4F901221C
:100FF00049462846FFF7AFF9002251462846FFF739
:10100000AAF9012259462846FFF7A5F960680C287D
:1010100013D1002231462846FFF79DF900224946A8
:101020002846FFF798F9012251462846FFF793F921
:10103000012259462846FFF78EF960680D2813D122
:10104000012231462846FFF786F900224946284604
:10105000FFF781F9012251462846FFF77CF901226A
:1010600059462846FFF777F960680E2813D1002209
:1010700031462846FFF76FF9012249462846FFF717
:101080006AF9012251462846FFF765F901225946BF
:101090002846FFF760F960680F2813D10122314616
:1010A0002846FFF758F9012249462846FFF753F929
:1010B000012251462846FFF74EF90122594628469B
:1010C000FFF749F9606810287FF468AE00223146C6
:1010D0002846FFF740F9002249462846FFF73BF92A
:1010E000002251462846FFF736F900225946284685
:1010F000FFF731F952E60000001001400000002027
:10110000000801400000000000000000010203048C
:101110000607080934110008000000202000000024
:10112000540D00085411000820000020480400005D
:10113000640D000800000000000000000000000036
:10114000000000000100000010000000000000008E
:041150000024F40083
:04000005080000ED02
:00000001FF
